{
  "contractName": "CoToken",
  "abi": [
    {
      "anonymous": false,
      "inputs": [
        {
          "indexed": true,
          "internalType": "address",
          "name": "owner",
          "type": "address"
        },
        {
          "indexed": true,
          "internalType": "address",
          "name": "spender",
          "type": "address"
        },
        {
          "indexed": false,
          "internalType": "uint256",
          "name": "value",
          "type": "uint256"
        }
      ],
      "name": "Approval",
      "type": "event"
    },
    {
      "anonymous": false,
      "inputs": [
        {
          "indexed": false,
          "internalType": "address",
          "name": "_owner",
          "type": "address"
        },
        {
          "indexed": false,
          "internalType": "uint256",
          "name": "_numTokens",
          "type": "uint256"
        },
        {
          "indexed": false,
          "internalType": "uint256",
          "name": "_sellingPrice",
          "type": "uint256"
        },
        {
          "indexed": false,
          "internalType": "uint256",
          "name": "_numTokensLeft",
          "type": "uint256"
        }
      ],
      "name": "Burned",
      "type": "event"
    },
    {
      "anonymous": false,
      "inputs": [
        {
          "indexed": false,
          "internalType": "address",
          "name": "_owner",
          "type": "address"
        },
        {
          "indexed": false,
          "internalType": "uint256",
          "name": "_numTokensWhenDestroyCalled",
          "type": "uint256"
        }
      ],
      "name": "Destroy",
      "type": "event"
    },
    {
      "anonymous": false,
      "inputs": [
        {
          "indexed": true,
          "internalType": "address",
          "name": "previousOwner",
          "type": "address"
        },
        {
          "indexed": true,
          "internalType": "address",
          "name": "newOwner",
          "type": "address"
        }
      ],
      "name": "OwnershipTransferred",
      "type": "event"
    },
    {
      "anonymous": false,
      "inputs": [
        {
          "indexed": true,
          "internalType": "address",
          "name": "from",
          "type": "address"
        },
        {
          "indexed": true,
          "internalType": "address",
          "name": "to",
          "type": "address"
        },
        {
          "indexed": false,
          "internalType": "uint256",
          "name": "value",
          "type": "uint256"
        }
      ],
      "name": "Transfer",
      "type": "event"
    },
    {
      "constant": true,
      "inputs": [],
      "name": "isOwner",
      "outputs": [
        {
          "internalType": "bool",
          "name": "",
          "type": "bool"
        }
      ],
      "payable": false,
      "stateMutability": "view",
      "type": "function"
    },
    {
      "constant": true,
      "inputs": [],
      "name": "owner",
      "outputs": [
        {
          "internalType": "address",
          "name": "",
          "type": "address"
        }
      ],
      "payable": false,
      "stateMutability": "view",
      "type": "function"
    },
    {
      "constant": false,
      "inputs": [],
      "name": "renounceOwnership",
      "outputs": [],
      "payable": false,
      "stateMutability": "nonpayable",
      "type": "function"
    },
    {
      "constant": false,
      "inputs": [
        {
          "internalType": "address",
          "name": "newOwner",
          "type": "address"
        }
      ],
      "name": "transferOwnership",
      "outputs": [],
      "payable": false,
      "stateMutability": "nonpayable",
      "type": "function"
    },
    {
      "constant": true,
      "inputs": [],
      "name": "totalSupply",
      "outputs": [
        {
          "internalType": "uint256",
          "name": "",
          "type": "uint256"
        }
      ],
      "payable": false,
      "stateMutability": "view",
      "type": "function"
    },
    {
      "constant": true,
      "inputs": [
        {
          "internalType": "address",
          "name": "_address",
          "type": "address"
        }
      ],
      "name": "balanceOf",
      "outputs": [
        {
          "internalType": "uint256",
          "name": "",
          "type": "uint256"
        }
      ],
      "payable": false,
      "stateMutability": "view",
      "type": "function"
    },
    {
      "constant": true,
      "inputs": [
        {
          "internalType": "address",
          "name": "_owner",
          "type": "address"
        },
        {
          "internalType": "address",
          "name": "_spender",
          "type": "address"
        }
      ],
      "name": "allowance",
      "outputs": [
        {
          "internalType": "uint256",
          "name": "",
          "type": "uint256"
        }
      ],
      "payable": false,
      "stateMutability": "view",
      "type": "function"
    },
    {
      "constant": false,
      "inputs": [
        {
          "internalType": "address",
          "name": "_to",
          "type": "address"
        },
        {
          "internalType": "uint256",
          "name": "_value",
          "type": "uint256"
        }
      ],
      "name": "transfer",
      "outputs": [
        {
          "internalType": "bool",
          "name": "",
          "type": "bool"
        }
      ],
      "payable": false,
      "stateMutability": "nonpayable",
      "type": "function"
    },
    {
      "constant": false,
      "inputs": [
        {
          "internalType": "address",
          "name": "_from",
          "type": "address"
        },
        {
          "internalType": "address",
          "name": "_to",
          "type": "address"
        },
        {
          "internalType": "uint256",
          "name": "_value",
          "type": "uint256"
        }
      ],
      "name": "transferFrom",
      "outputs": [
        {
          "internalType": "bool",
          "name": "",
          "type": "bool"
        }
      ],
      "payable": false,
      "stateMutability": "nonpayable",
      "type": "function"
    },
    {
      "constant": false,
      "inputs": [
        {
          "internalType": "address",
          "name": "_spender",
          "type": "address"
        },
        {
          "internalType": "uint256",
          "name": "_value",
          "type": "uint256"
        }
      ],
      "name": "approve",
      "outputs": [
        {
          "internalType": "bool",
          "name": "",
          "type": "bool"
        }
      ],
      "payable": false,
      "stateMutability": "nonpayable",
      "type": "function"
    },
    {
      "constant": true,
      "inputs": [
        {
          "internalType": "uint256",
          "name": "_numTokens",
          "type": "uint256"
        }
      ],
      "name": "buyPrice",
      "outputs": [
        {
          "internalType": "uint256",
          "name": "",
          "type": "uint256"
        }
      ],
      "payable": false,
      "stateMutability": "view",
      "type": "function"
    },
    {
      "constant": true,
      "inputs": [
        {
          "internalType": "uint256",
          "name": "_numTokens",
          "type": "uint256"
        }
      ],
      "name": "sellPrice",
      "outputs": [
        {
          "internalType": "uint256",
          "name": "",
          "type": "uint256"
        }
      ],
      "payable": false,
      "stateMutability": "view",
      "type": "function"
    },
    {
      "constant": false,
      "inputs": [
        {
          "internalType": "uint256",
          "name": "_numTokens",
          "type": "uint256"
        }
      ],
      "name": "mint",
      "outputs": [
        {
          "internalType": "bool",
          "name": "",
          "type": "bool"
        }
      ],
      "payable": true,
      "stateMutability": "payable",
      "type": "function"
    },
    {
      "constant": false,
      "inputs": [
        {
          "internalType": "uint256",
          "name": "_numTokens",
          "type": "uint256"
        }
      ],
      "name": "burn",
      "outputs": [
        {
          "internalType": "bool",
          "name": "",
          "type": "bool"
        }
      ],
      "payable": false,
      "stateMutability": "nonpayable",
      "type": "function"
    },
    {
      "constant": false,
      "inputs": [],
      "name": "destroy",
      "outputs": [],
      "payable": false,
      "stateMutability": "nonpayable",
      "type": "function"
    }
  ],
  "bytecode": "0x608060405260006003556064600455600061001e6100c160201b60201c565b9050806000806101000a81548173ffffffffffffffffffffffffffffffffffffffff021916908373ffffffffffffffffffffffffffffffffffffffff1602179055508073ffffffffffffffffffffffffffffffffffffffff16600073ffffffffffffffffffffffffffffffffffffffff167f8be0079c531659141344cd1fd0a4f28419497f9722a3daafe3b4186f6b6457e060405160405180910390a3506100c9565b600033905090565b611b72806100d86000396000f3fe6080604052600436106100e85760003560e01c80638da5cb5b1161008a578063a9059cbb11610059578063a9059cbb1461041f578063c4dbf62214610492578063dd62ed3e146104e1578063f2fde38b14610566576100e8565b80638da5cb5b146103045780638f32d59b1461035b578063911e279c1461038a578063a0712d68146103d9576100e8565b806342966c68116100c657806342966c681461021e57806370a0823114610271578063715018a6146102d657806383197ef0146102ed576100e8565b8063095ea7b3146100ed57806318160ddd1461016057806323b872dd1461018b575b600080fd5b3480156100f957600080fd5b506101466004803603604081101561011057600080fd5b81019080803573ffffffffffffffffffffffffffffffffffffffff169060200190929190803590602001909291905050506105b7565b604051808215151515815260200191505060405180910390f35b34801561016c57600080fd5b5061017561072a565b6040518082815260200191505060405180910390f35b34801561019757600080fd5b50610204600480360360608110156101ae57600080fd5b81019080803573ffffffffffffffffffffffffffffffffffffffff169060200190929190803573ffffffffffffffffffffffffffffffffffffffff16906020019092919080359060200190929190505050610734565b604051808215151515815260200191505060405180910390f35b34801561022a57600080fd5b506102576004803603602081101561024157600080fd5b81019080803590602001909291905050506109c6565b604051808215151515815260200191505060405180910390f35b34801561027d57600080fd5b506102c06004803603602081101561029457600080fd5b81019080803573ffffffffffffffffffffffffffffffffffffffff169060200190929190505050610c0c565b6040518082815260200191505060405180910390f35b3480156102e257600080fd5b506102eb610c55565b005b3480156102f957600080fd5b50610302610d8e565b005b34801561031057600080fd5b50610319610eba565b604051808273ffffffffffffffffffffffffffffffffffffffff1673ffffffffffffffffffffffffffffffffffffffff16815260200191505060405180910390f35b34801561036757600080fd5b50610370610ee3565b604051808215151515815260200191505060405180910390f35b34801561039657600080fd5b506103c3600480360360208110156103ad57600080fd5b8101908080359060200190929190505050610f41565b6040518082815260200191505060405180910390f35b610405600480360360208110156103ef57600080fd5b8101908080359060200190929190505050610f73565b604051808215151515815260200191505060405180910390f35b34801561042b57600080fd5b506104786004803603604081101561044257600080fd5b81019080803573ffffffffffffffffffffffffffffffffffffffff169060200190929190803590602001909291905050506110ff565b604051808215151515815260200191505060405180910390f35b34801561049e57600080fd5b506104cb600480360360208110156104b557600080fd5b81019080803590602001909291905050506111ac565b6040518082815260200191505060405180910390f35b3480156104ed57600080fd5b506105506004803603604081101561050457600080fd5b81019080803573ffffffffffffffffffffffffffffffffffffffff169060200190929190803573ffffffffffffffffffffffffffffffffffffffff16906020019092919050505061123d565b6040518082815260200191505060405180910390f35b34801561057257600080fd5b506105b56004803603602081101561058957600080fd5b81019080803573ffffffffffffffffffffffffffffffffffffffff1690602001909291905050506112c4565b005b600080600260003373ffffffffffffffffffffffffffffffffffffffff1673ffffffffffffffffffffffffffffffffffffffff16815260200190815260200160002060008573ffffffffffffffffffffffffffffffffffffffff1673ffffffffffffffffffffffffffffffffffffffff1681526020019081526020016000208190555081600260003373ffffffffffffffffffffffffffffffffffffffff1673ffffffffffffffffffffffffffffffffffffffff16815260200190815260200160002060008573ffffffffffffffffffffffffffffffffffffffff1673ffffffffffffffffffffffffffffffffffffffff168152602001908152602001600020819055508273ffffffffffffffffffffffffffffffffffffffff163373ffffffffffffffffffffffffffffffffffffffff167f8c5be1e5ebec7d5bd14f71427d1e84f3dd0314c0f7b2291e5b200ac8c7c3b925846040518082815260200191505060405180910390a36001905092915050565b6000600354905090565b600081600160008673ffffffffffffffffffffffffffffffffffffffff1673ffffffffffffffffffffffffffffffffffffffff1681526020019081526020016000205410156107ce576040517f08c379a000000000000000000000000000000000000000000000000000000000815260040180806020018281038252603e815260200180611a77603e913960400191505060405180910390fd5b81600260008673ffffffffffffffffffffffffffffffffffffffff1673ffffffffffffffffffffffffffffffffffffffff16815260200190815260200160002060008573ffffffffffffffffffffffffffffffffffffffff1673ffffffffffffffffffffffffffffffffffffffff1681526020019081526020016000205411156108a3576040517f08c379a0000000000000000000000000000000000000000000000000000000008152600401808060200182810382526036815260200180611b086036913960400191505060405180910390fd5b61093282600260008773ffffffffffffffffffffffffffffffffffffffff1673ffffffffffffffffffffffffffffffffffffffff16815260200190815260200160002060008673ffffffffffffffffffffffffffffffffffffffff1673ffffffffffffffffffffffffffffffffffffffff1681526020019081526020016000205461134a90919063ffffffff16565b600260008673ffffffffffffffffffffffffffffffffffffffff1673ffffffffffffffffffffffffffffffffffffffff16815260200190815260200160002060008573ffffffffffffffffffffffffffffffffffffffff1673ffffffffffffffffffffffffffffffffffffffff168152602001908152602001600020819055506109bd848484611394565b90509392505050565b60006109d0610ee3565b610a42576040517f08c379a00000000000000000000000000000000000000000000000000000000081526004018080602001828103825260208152602001807f4f776e61626c653a2063616c6c6572206973206e6f7420746865206f776e657281525060200191505060405180910390fd5b600354821115610a9d576040517f08c379a0000000000000000000000000000000000000000000000000000000008152600401808060200182810382526045815260200180611a326045913960600191505060405180910390fd5b6000610aa883610f41565b9050610abf8360035461134a90919063ffffffff16565b60038190555060003373ffffffffffffffffffffffffffffffffffffffff168260405180600001905060006040518083038185875af1925050503d8060008114610b25576040519150601f19603f3d011682016040523d82523d6000602084013e610b2a565b606091505b5050905080610b84576040517f08c379a000000000000000000000000000000000000000000000000000000000815260040180806020018281038252602b815260200180611940602b913960400191505060405180910390fd5b7f4c60206a5c1de41f3376d1d60f0949d96cb682033c90b1c2d9d9a62d4c4120c0338584600354604051808573ffffffffffffffffffffffffffffffffffffffff1673ffffffffffffffffffffffffffffffffffffffff16815260200184815260200183815260200182815260200194505050505060405180910390a1600192505050919050565b6000600160008373ffffffffffffffffffffffffffffffffffffffff1673ffffffffffffffffffffffffffffffffffffffff168152602001908152602001600020549050919050565b610c5d610ee3565b610ccf576040517f08c379a00000000000000000000000000000000000000000000000000000000081526004018080602001828103825260208152602001807f4f776e61626c653a2063616c6c6572206973206e6f7420746865206f776e657281525060200191505060405180910390fd5b600073ffffffffffffffffffffffffffffffffffffffff166000809054906101000a900473ffffffffffffffffffffffffffffffffffffffff1673ffffffffffffffffffffffffffffffffffffffff167f8be0079c531659141344cd1fd0a4f28419497f9722a3daafe3b4186f6b6457e060405160405180910390a360008060006101000a81548173ffffffffffffffffffffffffffffffffffffffff021916908373ffffffffffffffffffffffffffffffffffffffff160217905550565b610d96610ee3565b610e08576040517f08c379a00000000000000000000000000000000000000000000000000000000081526004018080602001828103825260208152602001807f4f776e61626c653a2063616c6c6572206973206e6f7420746865206f776e657281525060200191505060405180910390fd5b600354600160003373ffffffffffffffffffffffffffffffffffffffff1673ffffffffffffffffffffffffffffffffffffffff1681526020019081526020016000205414610ea1576040517f08c379a000000000000000000000000000000000000000000000000000000000815260040180806020018281038252603a81526020018061198c603a913960400191505060405180910390fd5b3373ffffffffffffffffffffffffffffffffffffffff16ff5b60008060009054906101000a900473ffffffffffffffffffffffffffffffffffffffff16905090565b60008060009054906101000a900473ffffffffffffffffffffffffffffffffffffffff1673ffffffffffffffffffffffffffffffffffffffff16610f25611530565b73ffffffffffffffffffffffffffffffffffffffff1614905090565b60008060035490506000610f5e848361134a90919063ffffffff16565b9050610f6a8282611538565b92505050919050565b60006001821015610fcf576040517f08c379a0000000000000000000000000000000000000000000000000000000008152600401808060200182810382526032815260200180611a006032913960400191505060405180910390fd5b610fd8826111ac565b341461102f576040517f08c379a000000000000000000000000000000000000000000000000000000000815260040180806020018281038252603a8152602001806119c6603a913960400191505060405180910390fd5b6004546003548301111561108e576040517f08c379a00000000000000000000000000000000000000000000000000000000081526004018080602001828103825260388152602001806119086038913960400191505060405180910390fd5b6110a3826003546115cf90919063ffffffff16565b60038190555081600160003373ffffffffffffffffffffffffffffffffffffffff1673ffffffffffffffffffffffffffffffffffffffff1681526020019081526020016000206000828254019250508190555060019050919050565b600081600160003373ffffffffffffffffffffffffffffffffffffffff1673ffffffffffffffffffffffffffffffffffffffff168152602001908152602001600020541015611199576040517f08c379a0000000000000000000000000000000000000000000000000000000008152600401808060200182810382526029815260200180611ab56029913960400191505060405180910390fd5b6111a4338484611394565b905092915050565b6000808211611206576040517f08c379a000000000000000000000000000000000000000000000000000000000815260040180806020018281038252602a815260200180611ade602a913960400191505060405180910390fd5b60006003549050600061122284836115cf90919063ffffffff16565b905060006112308284611538565b9050809350505050919050565b6000600260008473ffffffffffffffffffffffffffffffffffffffff1673ffffffffffffffffffffffffffffffffffffffff16815260200190815260200160002060008373ffffffffffffffffffffffffffffffffffffffff1673ffffffffffffffffffffffffffffffffffffffff16815260200190815260200160002054905092915050565b6112cc610ee3565b61133e576040517f08c379a00000000000000000000000000000000000000000000000000000000081526004018080602001828103825260208152602001807f4f776e61626c653a2063616c6c6572206973206e6f7420746865206f776e657281525060200191505060405180910390fd5b61134781611657565b50565b600061138c83836040518060400160405280601e81526020017f536166654d6174683a207375627472616374696f6e206f766572666c6f77000081525061179b565b905092915050565b60006113e882600160008773ffffffffffffffffffffffffffffffffffffffff1673ffffffffffffffffffffffffffffffffffffffff1681526020019081526020016000205461134a90919063ffffffff16565b600160008673ffffffffffffffffffffffffffffffffffffffff1673ffffffffffffffffffffffffffffffffffffffff1681526020019081526020016000208190555061147d82600160008673ffffffffffffffffffffffffffffffffffffffff1673ffffffffffffffffffffffffffffffffffffffff168152602001908152602001600020546115cf90919063ffffffff16565b600160008573ffffffffffffffffffffffffffffffffffffffff1673ffffffffffffffffffffffffffffffffffffffff168152602001908152602001600020819055508273ffffffffffffffffffffffffffffffffffffffff168473ffffffffffffffffffffffffffffffffffffffff167fddf252ad1be2c89b69c2b068fc378daa952ba7f163c4a11628f55a4df523b3ef846040518082815260200191505060405180910390a3600190509392505050565b600033905090565b6000806611c37937e08000905060006702c68af0bb1400009050600061156d6002860a6002880a61134a90919063ffffffff16565b9050611582838261185b90919063ffffffff16565b90506000611599868861134a90919063ffffffff16565b90506115ae838261185b90919063ffffffff16565b90506115c381836115cf90919063ffffffff16565b94505050505092915050565b60008082840190508381101561164d576040517f08c379a000000000000000000000000000000000000000000000000000000000815260040180806020018281038252601b8152602001807f536166654d6174683a206164646974696f6e206f766572666c6f77000000000081525060200191505060405180910390fd5b8091505092915050565b600073ffffffffffffffffffffffffffffffffffffffff168173ffffffffffffffffffffffffffffffffffffffff1614156116dd576040517f08c379a00000000000000000000000000000000000000000000000000000000081526004018080602001828103825260268152602001806118e26026913960400191505060405180910390fd5b8073ffffffffffffffffffffffffffffffffffffffff166000809054906101000a900473ffffffffffffffffffffffffffffffffffffffff1673ffffffffffffffffffffffffffffffffffffffff167f8be0079c531659141344cd1fd0a4f28419497f9722a3daafe3b4186f6b6457e060405160405180910390a3806000806101000a81548173ffffffffffffffffffffffffffffffffffffffff021916908373ffffffffffffffffffffffffffffffffffffffff16021790555050565b6000838311158290611848576040517f08c379a00000000000000000000000000000000000000000000000000000000081526004018080602001828103825283818151815260200191508051906020019080838360005b8381101561180d5780820151818401526020810190506117f2565b50505050905090810190601f16801561183a5780820380516001836020036101000a031916815260200191505b509250505060405180910390fd5b5060008385039050809150509392505050565b60008083141561186e57600090506118db565b600082840290508284828161187f57fe5b04146118d6576040517f08c379a000000000000000000000000000000000000000000000000000000000815260040180806020018281038252602181526020018061196b6021913960400191505060405180910390fd5b809150505b9291505056fe4f776e61626c653a206e6577206f776e657220697320746865207a65726f20616464726573735472616e73616374696f6e206661696c65642e20546f6b656e20737570706c79206c696d697420686173206265656e20726561636865642e4275726e206f7065726174696f6e20686173206661696c65642e2041726520796f752070617961626c653f536166654d6174683a206d756c7469706c69636174696f6e206f766572666c6f774f776e6572206d757374206f776e20616c6c20746f6b656e7320696e2063697263756c6174696f6e20746f2063616c6c2064657374727563742e5472616e73616374696f6e206661696c65642e20496e636f727265637420616d6f756e74206f66206574686572207472616e736665727265642e5472616e73616374696f6e206661696c65642e2043616e6e6f74206d696e74206c657373207468616e203120746f6b656e2e5472616e73616374696f6e206661696c65642e2043616e6e6f74207769746864726177206d6f726520746f6b656e73207468616e2074686520746f74616c20737570706c795472616e73616374696f6e206661696c65642e20496e73756666696369656e742066756e647320746f20636f6d706c657465207472616e73616374696f6e5472616e73666572206661696c65642064756520746f20696e73756666696369656e742066756e647343616e6e6f742070757263686173652061206e6567617469766520616d6f756e74206f6620636f696e73416d6f756e7420726571756573746564206d75737420626520657175616c20746f2073706563696669656420616c6c6f77616e63652ea265627a7a72315820aac1bec90b7622d147a92b4eb8fdd1641a3fda4ddd57b3257286e13d1d5464c464736f6c63430005100032",
  "source": "/*\n    Aims:\n        - Create an ownable, ERC20 compliant contract that implements a token called Co Token\n        - Implement some custom functions specified in the questions\n        - Write some tests for the contract (see questions)\n        - Deploy network to ganache test network\n*/\n\npragma solidity >= 0.5.0 <0.6.4;\n\n// Imports\nimport '@openzeppelin/contracts/token/ERC20/IERC20.sol';\nimport '@openzeppelin/contracts/math/SafeMath.sol';\nimport '@openzeppelin/contracts/ownership/Ownable.sol';\n\n/// Create contract\ncontract CoToken is IERC20, Ownable {\n    // import a lib:\n    using SafeMath for uint256;\n\n    /// Define private methods and fields\n    mapping (address => uint256) private balances;\n    mapping (address => mapping (address => uint256)) private approved;\n    uint256 private totalNumCoins = 0; // note that the value would default to zero in any case\n    uint256 private maxCoinSupply = 100;\n\n    function _transfer(address _from, address _to, uint256 _value) private returns (bool) {\n        balances[_from] = balances[_from].sub(_value);\n        balances[_to] = balances[_to].add(_value);\n        // fire off the transfer event\n        emit Transfer(_from, _to, _value);\n        return true;\n    }\n\n    function _returnPrice(uint256 _futureSupply, uint256 _currentSupply) private pure returns (uint256) {\n        // implement simplified defnite integral equation\n        uint256 ratio1 = 5*(10**15);\n        uint256 ratio2 = 2*(10**17);\n        uint256 partA = uint256(_futureSupply**2).sub(_currentSupply**2);\n        partA = partA.mul(ratio1);\n        uint256 partB = uint256(_futureSupply).sub(_currentSupply);\n        partB = partB.mul(ratio2);\n        return (partA.add(partB)); //i.e. return answer in wei\n    }\n\n    /// Public Interface\n\n    /// Implement the IERC20 interface from OpenZeppelin\n\n    /// Return the total number of coins in existence\n    function totalSupply() external view returns (uint256) {\n        return (totalNumCoins);\n    }\n\n    /// Return the balance or num tokens owned by a specified address\n    function balanceOf(address _address) external view returns (uint256) {\n        return (balances[_address]);\n    }\n\n    /// Returns the amount that an approved address is allowed to withdraw from the owner's account\n    /// @param _owner        Person who owns the address\n    /// @param _spender      Person who has been approved to make a withdrawal from the owner's account\n    function allowance(address _owner, address _spender) external view returns (uint256) {\n            return (approved[_owner][_spender]);\n        }\n\n    /// Transfer tokens from one account to another. Transfers of zero tokens must be allowed and fire a transfer event.\n    /// @param _to       the account that the tokens are being sent to\n    /// @param _value    the amount being sent to the address '_to'\n    function transfer(address _to, uint256 _value) external returns (bool) {\n        require (balances[msg.sender] >= _value, \"Transfer failed due to insufficient funds\");\n        // do transfer\n        return _transfer(msg.sender, _to, _value);\n    }\n\n    /// Transfer accounts from an owner to an approved beneficiary.\n    /// Require that the beneficiary be on the approved list and receive less than or equal to the amount approved by the owner\n    /// @param _from        The account sending the tokens\n    /// @param _to          The account receiving the tokens\n    /// @param _value       The amount of tokens being sent\n    function transferFrom(address _from, address _to, uint256 _value) external returns (bool) {\n        require(balances[_from] >= _value, \"Transaction failed. Insufficient funds to complete transaction\");\n        require(approved[_from][_to] <= _value, \"Amount requested must be equal to specified allowance.\");\n        // do effects: update the allowance that the _to address has left to spend\n        approved[_from][_to] = approved[_from][_to].sub(_value);\n        // now make transfer, which includes more effects\n        return _transfer(_from, _to, _value);\n    }\n\n    /// Add someone to the approved list and allow them to spend certain amount of ether on behalf of the owner\n    /// @param  _spender      The nominated account that can spend on behalf of owner (i.e. withdraw funds from owner's account)\n    /// @param  _value        The amount that they're allowed to spend/withdraw\n    function approve(address _spender, uint256 _value) external returns (bool) {\n        // for safety reasons, set allowance to zero first\n        approved[msg.sender][_spender] = 0;\n        // add the spender and value to the list of approved people for the account that called this function\n        approved[msg.sender][_spender] = _value;\n        emit Approval(msg.sender, _spender, _value); // emit approval event\n        return true;\n    }\n\n    event Transfer(\n        address indexed from,\n        address indexed to,\n        uint256 value\n    );\n\n    event Approval(\n        address indexed owner,\n        address indexed spender,\n        uint256 value );\n\n\n    /// implement other public functions\n    /// Calculate the cost of buying numCo Co's, using a token bonding curve: price = 0.01x + 0.2\n    function buyPrice(uint256 _numTokens) public view returns (uint256) {\n        require (_numTokens > 0, \"Cannot purchase a negative amount of coins\");\n        uint256 currentSupply = totalNumCoins;\n        uint256 futureSupply = currentSupply.add(_numTokens);\n        uint256 val = _returnPrice(futureSupply, currentSupply);\n        return val;\n    }\n\n    /// Calculate the earnings from selling some Co Tokens, using a token bonding curve: selling price = 0.01x + 0.2\n    function sellPrice(uint256 _numTokens) public view returns (uint256) {\n        uint256 currentSupply = totalNumCoins;\n        uint256 futureSupply = currentSupply.sub(_numTokens);\n        // note how they're being swopped around! Can do this because selling curve is the same as buying curve. This avoids safemath subtraction errors.\n        return (_returnPrice(currentSupply, futureSupply));\n    }\n\n    /// Purchase some Co Tokens. Caller must attach the precise amount of Eth for the transaction to pass.\n    function mint(uint256 _numTokens) external payable returns (bool) {\n        require (_numTokens >= 1, \"Transaction failed. Cannot mint less than 1 token.\");\n        require (msg.value == buyPrice(_numTokens), \"Transaction failed. Incorrect amount of ether transferred.\");\n        require (_numTokens + totalNumCoins <= maxCoinSupply, \"Transaction failed. Token supply limit has been reached.\");\n        totalNumCoins = totalNumCoins.add(_numTokens);\n        balances[msg.sender] += _numTokens; // no need for safe math because no risk of overflow. NumTokens AA capped at 100.\n        return true;\n    }\n\n    /// Burn tokens, i.e. remove them from the supply and payout the value in eth to the minter\n    /// Only the minter can call this function. They can only burn as many tokens as there are in ciruclation.\n    /// Have to use checks-effects-interactions pattern to precent reentrancy attacks from minter (in this case, double burns).\n    function burn(uint256 _numTokens) external onlyOwner returns (bool) {\n        require (_numTokens <= totalNumCoins, \"Transaction failed. Cannot withdraw more tokens than the total supply\");\n        // do effects: reduce the total number of tokens in circulation.\n        // first make sure to get the selling price though!\n        uint256 weiToTransfer = sellPrice(_numTokens);\n        totalNumCoins = totalNumCoins.sub(_numTokens);\n        // now do the external calls\n        (bool success,) = (msg.sender).call.value(weiToTransfer)(\"\");\n        require (success, \"Burn operation has failed. Are you payable?\");\n        emit Burned(msg.sender, _numTokens, weiToTransfer, totalNumCoins);\n        return true;\n    }\n\n    /// Destroy the contract. Results in all of the ether that was sent to the contract being paid out to the minter.\n    /// The function may only be called by the owner/minter, assuming that they own all of the tokens currently in supply\n    function destroy() external onlyOwner {\n        // first check if Co owns all of the tokens:\n        require (balances[msg.sender] == totalNumCoins, \"Owner must own all tokens in circulation to call destruct.\");\n        // destroy the contract and payout all of the ether to Co.\n        // note that for Co to ever call this function, he'd make a loss, since he'd have to buy all of the available tokens first and pay gas costs.\n        selfdestruct(msg.sender);\n        emit Destroy(msg.sender, totalNumCoins);\n    }\n\n    /// Probably good practice to emit an event whenever the owner chooses to burn some tokens.\n    event Burned (\n        address _owner,\n        uint256 _numTokens,\n        uint256 _sellingPrice,\n        uint256 _numTokensLeft\n    );\n    /// Again, probably best to emit an event when the contract is destroyed.\n    event Destroy (\n        address _owner,\n        uint256 _numTokensWhenDestroyCalled\n    );\n}\n",
  "sourcePath": "/home/user/Documents/CodingWeek/Part_2/contracts/CoToken.sol",
  "compiler": {
    "name": "solc",
    "version": "0.5.16+commit.9c3226ce.Emscripten.clang"
  },
  "schemaVersion": "3.0.23",
  "updatedAt": "2020-03-08T15:15:30.268Z",
  "devdoc": {
    "methods": {
      "allowance(address,address)": {
        "params": {
          "_owner": "Person who owns the address",
          "_spender": "Person who has been approved to make a withdrawal from the owner's account"
        }
      },
      "approve(address,uint256)": {
        "params": {
          "_spender": "The nominated account that can spend on behalf of owner (i.e. withdraw funds from owner's account)",
          "_value": "The amount that they're allowed to spend/withdraw"
        }
      },
      "isOwner()": {
        "details": "Returns true if the caller is the current owner."
      },
      "owner()": {
        "details": "Returns the address of the current owner."
      },
      "renounceOwnership()": {
        "details": "Leaves the contract without owner. It will not be possible to call `onlyOwner` functions anymore. Can only be called by the current owner.     * NOTE: Renouncing ownership will leave the contract without an owner, thereby removing any functionality that is only available to the owner."
      },
      "transfer(address,uint256)": {
        "params": {
          "_to": "the account that the tokens are being sent to",
          "_value": "the amount being sent to the address '_to'"
        }
      },
      "transferFrom(address,address,uint256)": {
        "params": {
          "_from": "The account sending the tokens",
          "_to": "The account receiving the tokens",
          "_value": "The amount of tokens being sent"
        }
      },
      "transferOwnership(address)": {
        "details": "Transfers ownership of the contract to a new account (`newOwner`). Can only be called by the current owner."
      }
    }
  },
  "userdoc": {
    "methods": {
      "allowance(address,address)": {
        "notice": "Returns the amount that an approved address is allowed to withdraw from the owner's account"
      },
      "approve(address,uint256)": {
        "notice": "Add someone to the approved list and allow them to spend certain amount of ether on behalf of the owner"
      },
      "balanceOf(address)": {
        "notice": "Return the balance or num tokens owned by a specified address"
      },
      "burn(uint256)": {
        "notice": "Burn tokens, i.e. remove them from the supply and payout the value in eth to the minter Only the minter can call this function. They can only burn as many tokens as there are in ciruclation. Have to use checks-effects-interactions pattern to precent reentrancy attacks from minter (in this case, double burns)."
      },
      "buyPrice(uint256)": {
        "notice": "implement other public functions Calculate the cost of buying numCo Co's, using a token bonding curve: price = 0.01x + 0.2"
      },
      "destroy()": {
        "notice": "Destroy the contract. Results in all of the ether that was sent to the contract being paid out to the minter. The function may only be called by the owner/minter, assuming that they own all of the tokens currently in supply"
      },
      "mint(uint256)": {
        "notice": "Purchase some Co Tokens. Caller must attach the precise amount of Eth for the transaction to pass."
      },
      "sellPrice(uint256)": {
        "notice": "Calculate the earnings from selling some Co Tokens, using a token bonding curve: selling price = 0.01x + 0.2"
      },
      "totalSupply()": {
        "notice": "Public Interface Implement the IERC20 interface from OpenZeppelin Return the total number of coins in existence"
      },
      "transfer(address,uint256)": {
        "notice": "Transfer tokens from one account to another. Transfers of zero tokens must be allowed and fire a transfer event."
      },
      "transferFrom(address,address,uint256)": {
        "notice": "Transfer accounts from an owner to an approved beneficiary. Require that the beneficiary be on the approved list and receive less than or equal to the amount approved by the owner"
      }
    },
    "notice": "Create contract"
  }
}