{
  "contractName": "WeCoin",
  "abi": [
    {
      "anonymous": false,
      "inputs": [
        {
          "indexed": true,
          "internalType": "address",
          "name": "owner",
          "type": "address"
        },
        {
          "indexed": true,
          "internalType": "address",
          "name": "spender",
          "type": "address"
        },
        {
          "indexed": false,
          "internalType": "uint256",
          "name": "value",
          "type": "uint256"
        }
      ],
      "name": "Approval",
      "type": "event"
    },
    {
      "anonymous": false,
      "inputs": [
        {
          "indexed": true,
          "internalType": "address",
          "name": "previousOwner",
          "type": "address"
        },
        {
          "indexed": true,
          "internalType": "address",
          "name": "newOwner",
          "type": "address"
        }
      ],
      "name": "OwnershipTransferred",
      "type": "event"
    },
    {
      "anonymous": false,
      "inputs": [
        {
          "indexed": true,
          "internalType": "address",
          "name": "from",
          "type": "address"
        },
        {
          "indexed": true,
          "internalType": "address",
          "name": "to",
          "type": "address"
        },
        {
          "indexed": false,
          "internalType": "uint256",
          "name": "value",
          "type": "uint256"
        }
      ],
      "name": "Transfer",
      "type": "event"
    },
    {
      "constant": true,
      "inputs": [],
      "name": "isOwner",
      "outputs": [
        {
          "internalType": "bool",
          "name": "",
          "type": "bool"
        }
      ],
      "payable": false,
      "stateMutability": "view",
      "type": "function"
    },
    {
      "constant": true,
      "inputs": [],
      "name": "owner",
      "outputs": [
        {
          "internalType": "address",
          "name": "",
          "type": "address"
        }
      ],
      "payable": false,
      "stateMutability": "view",
      "type": "function"
    },
    {
      "constant": false,
      "inputs": [],
      "name": "renounceOwnership",
      "outputs": [],
      "payable": false,
      "stateMutability": "nonpayable",
      "type": "function"
    },
    {
      "constant": false,
      "inputs": [
        {
          "internalType": "address",
          "name": "newOwner",
          "type": "address"
        }
      ],
      "name": "transferOwnership",
      "outputs": [],
      "payable": false,
      "stateMutability": "nonpayable",
      "type": "function"
    },
    {
      "constant": true,
      "inputs": [],
      "name": "totalSupply",
      "outputs": [
        {
          "internalType": "uint256",
          "name": "",
          "type": "uint256"
        }
      ],
      "payable": false,
      "stateMutability": "view",
      "type": "function"
    },
    {
      "constant": true,
      "inputs": [
        {
          "internalType": "address",
          "name": "_address",
          "type": "address"
        }
      ],
      "name": "balanceOf",
      "outputs": [
        {
          "internalType": "uint256",
          "name": "",
          "type": "uint256"
        }
      ],
      "payable": false,
      "stateMutability": "view",
      "type": "function"
    },
    {
      "constant": true,
      "inputs": [
        {
          "internalType": "address",
          "name": "_owner",
          "type": "address"
        },
        {
          "internalType": "address",
          "name": "_spender",
          "type": "address"
        }
      ],
      "name": "allowance",
      "outputs": [
        {
          "internalType": "uint256",
          "name": "",
          "type": "uint256"
        }
      ],
      "payable": false,
      "stateMutability": "view",
      "type": "function"
    },
    {
      "constant": false,
      "inputs": [
        {
          "internalType": "address",
          "name": "_to",
          "type": "address"
        },
        {
          "internalType": "uint256",
          "name": "_value",
          "type": "uint256"
        }
      ],
      "name": "transfer",
      "outputs": [
        {
          "internalType": "bool",
          "name": "",
          "type": "bool"
        }
      ],
      "payable": false,
      "stateMutability": "nonpayable",
      "type": "function"
    },
    {
      "constant": false,
      "inputs": [
        {
          "internalType": "address",
          "name": "_from",
          "type": "address"
        },
        {
          "internalType": "address",
          "name": "_to",
          "type": "address"
        },
        {
          "internalType": "uint256",
          "name": "_value",
          "type": "uint256"
        }
      ],
      "name": "transferFrom",
      "outputs": [
        {
          "internalType": "bool",
          "name": "",
          "type": "bool"
        }
      ],
      "payable": false,
      "stateMutability": "nonpayable",
      "type": "function"
    },
    {
      "constant": false,
      "inputs": [
        {
          "internalType": "address",
          "name": "_spender",
          "type": "address"
        },
        {
          "internalType": "uint256",
          "name": "_value",
          "type": "uint256"
        }
      ],
      "name": "approve",
      "outputs": [
        {
          "internalType": "bool",
          "name": "",
          "type": "bool"
        }
      ],
      "payable": false,
      "stateMutability": "nonpayable",
      "type": "function"
    }
  ],
  "bytecode": "0x608060405260006003819055805460ff191660011781556100276001600160e01b0361007e16565b60008054610100600160a81b0319166101006001600160a01b038416908102919091178255604051929350917f8be0079c531659141344cd1fd0a4f28419497f9722a3daafe3b4186f6b6457e0908290a350610082565b3390565b610aad806100916000396000f3fe608060405234801561001057600080fd5b506004361061009e5760003560e01c80638da5cb5b116100665780638da5cb5b146101635780638f32d59b14610187578063a9059cbb1461018f578063dd62ed3e146101bb578063f2fde38b146101e95761009e565b8063095ea7b3146100a357806318160ddd146100e357806323b872dd146100fd57806370a0823114610133578063715018a614610159575b600080fd5b6100cf600480360360408110156100b957600080fd5b506001600160a01b03813516906020013561020f565b604080519115158252519081900360200190f35b6100eb610275565b60408051918252519081900360200190f35b6100cf6004803603606081101561011357600080fd5b506001600160a01b0381358116916020810135909116906040013561027b565b6100eb6004803603602081101561014957600080fd5b50356001600160a01b0316610412565b61016161042d565b005b61016b6104d5565b604080516001600160a01b039092168252519081900360200190f35b6100cf6104e9565b6100cf600480360360408110156101a557600080fd5b506001600160a01b038135169060200135610512565b6100eb600480360360408110156101d157600080fd5b506001600160a01b03813581169160200135166105df565b610161600480360360208110156101ff57600080fd5b50356001600160a01b031661060a565b3360008181526002602090815260408083206001600160a01b038716808552908352818420869055815186815291519394909390927f8c5be1e5ebec7d5bd14f71427d1e84f3dd0314c0f7b2291e5b200ac8c7c3b925928290030190a350600192915050565b60035490565b6000805460ff166102d3576040805162461bcd60e51b815260206004820152601f60248201527f5265656e7472616e637947756172643a207265656e7472616e742063616c6c00604482015290519081900360640190fd5b6000805460ff191681556001600160a01b0385168152600160205260409020548211156103315760405162461bcd60e51b815260040180806020018281038252603e8152602001806109dc603e913960400191505060405180910390fd5b6001600160a01b038085166000908152600260209081526040808320938716835292905220548210156103955760405162461bcd60e51b8152600401808060200182810382526036815260200180610a436036913960400191505060405180910390fd5b6001600160a01b038085166000908152600260209081526040808320938716835292905220546103cb908363ffffffff61066f16565b6001600160a01b038086166000908152600260209081526040808320938816835292905220556103fc8484846106b8565b90506000805460ff191660011790559392505050565b6001600160a01b031660009081526001602052604090205490565b6104356104e9565b610486576040805162461bcd60e51b815260206004820181905260248201527f4f776e61626c653a2063616c6c6572206973206e6f7420746865206f776e6572604482015290519081900360640190fd5b600080546040516101009091046001600160a01b0316907f8be0079c531659141344cd1fd0a4f28419497f9722a3daafe3b4186f6b6457e0908390a360008054610100600160a81b0319169055565b60005461010090046001600160a01b031690565b6000805461010090046001600160a01b0316610503610815565b6001600160a01b031614905090565b6000805460ff1661056a576040805162461bcd60e51b815260206004820152601f60248201527f5265656e7472616e637947756172643a207265656e7472616e742063616c6c00604482015290519081900360640190fd5b6000805460ff19168155338152600160205260409020548211156105bf5760405162461bcd60e51b8152600401808060200182810382526029815260200180610a1a6029913960400191505060405180910390fd5b6105ca3384846106b8565b90506000805460ff1916600117905592915050565b6001600160a01b03918216600090815260026020908152604080832093909416825291909152205490565b6106126104e9565b610663576040805162461bcd60e51b815260206004820181905260248201527f4f776e61626c653a2063616c6c6572206973206e6f7420746865206f776e6572604482015290519081900360640190fd5b61066c81610819565b50565b60006106b183836040518060400160405280601e81526020017f536166654d6174683a207375627472616374696f6e206f766572666c6f7700008152506108c4565b9392505050565b604051600090839082906001600160a01b0383169085908381818185875af1925050503d8060008114610707576040519150601f19603f3d011682016040523d82523d6000602084013e61070c565b606091505b5050905080610754576040805162461bcd60e51b815260206004820152600f60248201526e151c985b9cd9995c8819985a5b1959608a1b604482015290519081900360640190fd5b6001600160a01b03861660009081526001602052604090205461077d908563ffffffff61066f16565b6001600160a01b0380881660009081526001602052604080822093909355908716815220546107b2908563ffffffff61095b16565b6001600160a01b0380871660008181526001602090815260409182902094909455805188815290519193928a16927fddf252ad1be2c89b69c2b068fc378daa952ba7f163c4a11628f55a4df523b3ef92918290030190a350600195945050505050565b3390565b6001600160a01b03811661085e5760405162461bcd60e51b81526004018080602001828103825260268152602001806109b66026913960400191505060405180910390fd5b600080546040516001600160a01b038085169361010090930416917f8be0079c531659141344cd1fd0a4f28419497f9722a3daafe3b4186f6b6457e091a3600080546001600160a01b0390921661010002610100600160a81b0319909216919091179055565b600081848411156109535760405162461bcd60e51b81526004018080602001828103825283818151815260200191508051906020019080838360005b83811015610918578181015183820152602001610900565b50505050905090810190601f1680156109455780820380516001836020036101000a031916815260200191505b509250505060405180910390fd5b505050900390565b6000828201838110156106b1576040805162461bcd60e51b815260206004820152601b60248201527f536166654d6174683a206164646974696f6e206f766572666c6f770000000000604482015290519081900360640190fdfe4f776e61626c653a206e6577206f776e657220697320746865207a65726f20616464726573735472616e73616374696f6e206661696c65642e20496e73756666696369656e742066756e647320746f20636f6d706c657465207472616e73616374696f6e5472616e73666572206661696c65642064756520746f20696e73756666696369656e742066756e6473416d6f756e7420726571756573746564206d75737420626520657175616c20746f2073706563696669656420616c6c6f77616e63652ea265627a7a72315820d288fc93dac10dba0b7f6324aa7069ce4a1aa645f68a5b47f74abbeaa36bd04b64736f6c63430005100032",
  "source": "/*\n    Coding Week Assignment Part Two.\n    Aims:\n        - Create an ownable, ERC20 compliant contract that implements a token called Co Token\n        - Implement some custom functions specified in the questions\n        - Write some tests for the contract (see questions)\n        - Deploy network to ganache test network\n\n        - 4%? Perhaps go the extra mile with tests and security checks\n*/\n\npragma solidity >= 0.5.0 <0.6.4;\n\n// Imports\nimport '@openzeppelin/contracts/token/ERC20/IERC20.sol';\nimport '@openzeppelin/contracts/math/SafeMath.sol';\nimport '@openzeppelin/contracts/ownership/Ownable.sol';\nimport '@openzeppelin/contracts/utils/ReentrancyGuard.sol';\n\n/// Create contract\ncontract WeCoin is IERC20, ReentrancyGuard, Ownable {\n    // import a lib:\n    using SafeMath for uint256;\n\n    /// Define private methods and fields\n    mapping (address => uint256) private balances;\n    mapping (address => mapping (address => uint256)) private approved;\n    uint256 private totalNumCoins = 0; // note that the value defaults to zero in any case\n\n    function _transfer(address _from, address _to, uint256 _value) private returns (bool) {\n        address payable receiver = address(uint160(_to));\n        // using call.value because of EIP 1884 (variable gas costs for EVM operations) and fowarding all available gas to fallback function\n        (bool success, ) = receiver.call.value(_value)(\"\");\n        require (success, \"Transfer failed\");\n        // now readjust the balances\n        balances[_from] = balances[_from].sub(_value);\n        balances[_to] = balances[_to].add(_value);\n        // fire off the transfer event\n        emit Transfer(_from, _to, _value);\n        return true;\n    }\n\n    /// Public Interface\n    \n    /// Implement the IERC20 interface from OpenZeppelin\n\n    /// Return the total number of coins in existence\n    function totalSupply() external view returns (uint256) {\n        return (totalNumCoins);\n    }\n\n    /// Return the balance or num tokens owned by a specified address\n    function balanceOf(address _address) external view returns (uint256) {\n        return (balances[_address]);\n    }\n\n    /// Returns the amount that an approved address is allowed to withdraw from the owner's account\n    /// @param _owner        Person who owns the address\n    /// @param _spender      Person who has been approved to make a withdrawal from the owner's account\n    function allowance(address _owner, address _spender) external view returns (uint256) {\n            return (approved[_owner][_spender]);\n        }\n\n    /// Transfer tokens from msg.sender to the address specified in _to. Only the owner should be able to call this, but I'm not sure how to implement that!\n    /// Transfer tokens from one account to another. Transfers of zero tokens must be allowed and fire a transfer event.\n    /// @param _to       the account that the tokens are being sent to\n    /// @param _value    the amount being sent to the address '_to'\n    function transfer(address _to, uint256 _value) external nonReentrant returns (bool) {\n        require (balances[msg.sender] >= _value, \"Transfer failed due to insufficient funds\");\n\n        return _transfer(msg.sender, _to, _value);\n    }\n\n    /// Transfer accounts from an owner to an approved beneficiary.\n    /// Require that the beneficiary be on the approved list and receive less than or equal to the amount approved by the owner\n    /// @param _from        The account sending the tokens\n    /// @param _to          The account receiving the tokens\n    /// @param _value       The amount of tokens being sent\n    function transferFrom(address _from, address _to, uint256 _value) external nonReentrant returns (bool) {\n        require(balances[_from] >= _value, \"Transaction failed. Insufficient funds to complete transaction\");\n        require(approved[_from][_to] <= _value, \"Amount requested must be equal to specified allowance.\");\n        // do effects: update the allowance that the _to address has left to spend\n        approved[_from][_to] = approved[_from][_to].sub(_value); \n        // now make external calls (already protected against reentrancy)\n        return _transfer(_from, _to, _value);\n    }\n\n    /// Add someone to the approved list and allow them to spend certain amount of ether on behalf of the owner\n    /// @param  _spender      The nominated account that can spend on behalf of owner (i.e. withdraw funds from owner's account)\n    /// @param  _value        The amount that they're allowed to spend/withdraw\n    function approve(address _spender, uint256 _value) external returns (bool) {\n        // for safety reasons, set allowance to zero first\n        approved[msg.sender][_spender] = 0;\n        // add the spender and value to the list of approved people for the account that called this function\n        approved[msg.sender][_spender] = _value;\n        emit Approval(msg.sender, _spender, _value); // emit approval event\n        return true;\n    }\n\n    event Transfer(\n        address indexed from,\n        address indexed to,\n        uint256 value\n    );\n\n    event Approval(\n        address indexed owner,\n        address indexed spender,\n        uint256 value );\n\n}\n",
  "sourcePath": "/home/user/Documents/CodingWeek/Part_2/contracts/CoToken.sol",
  "compiler": {
    "name": "solc",
    "version": "0.5.16+commit.9c3226ce.Emscripten.clang"
  },
  "schemaVersion": "3.0.23",
  "updatedAt": "2020-03-06T12:32:23.797Z",
  "devdoc": {
    "methods": {
      "allowance(address,address)": {
        "params": {
          "_owner": "Person who owns the address",
          "_spender": "Person who has been approved to make a withdrawal from the owner's account"
        }
      },
      "approve(address,uint256)": {
        "params": {
          "_spender": "The nominated account that can spend on behalf of owner (i.e. withdraw funds from owner's account)",
          "_value": "The amount that they're allowed to spend/withdraw"
        }
      },
      "isOwner()": {
        "details": "Returns true if the caller is the current owner."
      },
      "owner()": {
        "details": "Returns the address of the current owner."
      },
      "renounceOwnership()": {
        "details": "Leaves the contract without owner. It will not be possible to call `onlyOwner` functions anymore. Can only be called by the current owner.     * NOTE: Renouncing ownership will leave the contract without an owner, thereby removing any functionality that is only available to the owner."
      },
      "transfer(address,uint256)": {
        "params": {
          "_to": "the account that the tokens are being sent to",
          "_value": "the amount being sent to the address '_to'"
        }
      },
      "transferFrom(address,address,uint256)": {
        "params": {
          "_from": "The account sending the tokens",
          "_to": "The account receiving the tokens",
          "_value": "The amount of tokens being sent"
        }
      },
      "transferOwnership(address)": {
        "details": "Transfers ownership of the contract to a new account (`newOwner`). Can only be called by the current owner."
      }
    }
  },
  "userdoc": {
    "methods": {
      "allowance(address,address)": {
        "notice": "Returns the amount that an approved address is allowed to withdraw from the owner's account"
      },
      "approve(address,uint256)": {
        "notice": "Add someone to the approved list and allow them to spend certain amount of ether on behalf of the owner"
      },
      "balanceOf(address)": {
        "notice": "Return the balance or num tokens owned by a specified address"
      },
      "totalSupply()": {
        "notice": "Public Interface Implement the IERC20 interface from OpenZeppelin Return the total number of coins in existence"
      },
      "transfer(address,uint256)": {
        "notice": "Transfer tokens from msg.sender to the address specified in _to. Only the owner should be able to call this, but I'm not sure how to implement that! Transfer tokens from one account to another. Transfers of zero tokens must be allowed and fire a transfer event."
      },
      "transferFrom(address,address,uint256)": {
        "notice": "Transfer accounts from an owner to an approved beneficiary. Require that the beneficiary be on the approved list and receive less than or equal to the amount approved by the owner"
      }
    },
    "notice": "Create contract"
  }
}